{"abi":[{"type":"constructor","inputs":[{"name":"_usdcToken","type":"address","internalType":"address"},{"name":"_serverSigner","type":"address","internalType":"address"}],"stateMutability":"nonpayable"},{"type":"function","name":"TREASURY_ADDRESS","inputs":[],"outputs":[{"name":"","type":"address","internalType":"address"}],"stateMutability":"view"},{"type":"function","name":"claimPrize","inputs":[{"name":"gameId","type":"bytes32","internalType":"bytes32"},{"name":"winner","type":"address","internalType":"address"},{"name":"signature","type":"bytes","internalType":"bytes"}],"outputs":[],"stateMutability":"nonpayable"},{"type":"function","name":"games","inputs":[{"name":"","type":"bytes32","internalType":"bytes32"}],"outputs":[{"name":"player1","type":"address","internalType":"address"},{"name":"player2","type":"address","internalType":"address"},{"name":"betAmount","type":"uint256","internalType":"uint256"},{"name":"isResolved","type":"bool","internalType":"bool"}],"stateMutability":"view"},{"type":"function","name":"leaveGame","inputs":[{"name":"gameId","type":"bytes32","internalType":"bytes32"}],"outputs":[],"stateMutability":"nonpayable"},{"type":"function","name":"lockBet","inputs":[{"name":"gameId","type":"bytes32","internalType":"bytes32"},{"name":"amount","type":"uint256","internalType":"uint256"}],"outputs":[],"stateMutability":"nonpayable"},{"type":"function","name":"reclaimBet","inputs":[{"name":"gameId","type":"bytes32","internalType":"bytes32"}],"outputs":[],"stateMutability":"nonpayable"},{"type":"function","name":"serverSigner","inputs":[],"outputs":[{"name":"","type":"address","internalType":"address"}],"stateMutability":"view"},{"type":"function","name":"usdcToken","inputs":[],"outputs":[{"name":"","type":"address","internalType":"contract IERC20"}],"stateMutability":"view"},{"type":"error","name":"ECDSAInvalidSignature","inputs":[]},{"type":"error","name":"ECDSAInvalidSignatureLength","inputs":[{"name":"length","type":"uint256","internalType":"uint256"}]},{"type":"error","name":"ECDSAInvalidSignatureS","inputs":[{"name":"s","type":"bytes32","internalType":"bytes32"}]},{"type":"error","name":"GameAlreadyResolved","inputs":[]},{"type":"error","name":"GameFull","inputs":[]},{"type":"error","name":"InvalidBetAmount","inputs":[]},{"type":"error","name":"InvalidSignature","inputs":[]},{"type":"error","name":"NotAPlayer","inputs":[]},{"type":"error","name":"NotTheCreator","inputs":[]},{"type":"error","name":"OpponentJoined","inputs":[]},{"type":"error","name":"ReentrancyGuardReentrantCall","inputs":[]},{"type":"error","name":"SafeERC20FailedOperation","inputs":[{"name":"token","type":"address","internalType":"address"}]}],"bytecode":{"object":"0x60c060405234801561000f575f5ffd5b50604051611bd7380380611bd783398181016040528101906100319190610154565b600161004f6100446100c460201b60201c565b6100ed60201b60201c565b5f01819055508173ffffffffffffffffffffffffffffffffffffffff1660808173ffffffffffffffffffffffffffffffffffffffff16815250508073ffffffffffffffffffffffffffffffffffffffff1660a08173ffffffffffffffffffffffffffffffffffffffff16815250505050610192565b5f7f9b779b17422d0df92223018b32b4d1fa46e071723d6817e2486d003becc55f005f1b905090565b5f819050919050565b5f5ffd5b5f73ffffffffffffffffffffffffffffffffffffffff82169050919050565b5f610123826100fa565b9050919050565b61013381610119565b811461013d575f5ffd5b50565b5f8151905061014e8161012a565b92915050565b5f5f6040838503121561016a576101696100f6565b5b5f61017785828601610140565b925050602061018885828601610140565b9150509250929050565b60805160a0516119ec6101eb5f395f8181610425015261058c01525f81816101a101528181610534015281816107ca015281816109d701528181610c0d01528181610d6701528181610db20152610e1101526119ec5ff3fe608060405234801561000f575f5ffd5b5060043610610086575f3560e01c80637448b9b4116100595780637448b9b414610100578063bd43845b1461011c578063e6d39e8514610138578063f579f8821461015457610086565b806307604b1a1461008a57806311eac855146100a8578063304fd166146100c657806331af1908146100e2575b5f5ffd5b610092610187565b60405161009f919061145d565b60405180910390f35b6100b061019f565b6040516100bd91906114d1565b60405180910390f35b6100e060048036038101906100db91906115b0565b6101c3565b005b6100ea61058a565b6040516100f7919061145d565b60405180910390f35b61011a60048036038101906101159190611654565b6105ae565b005b61013660048036038101906101319190611692565b61081c565b005b610152600480360381019061014d9190611692565b610a27565b005b61016e60048036038101906101699190611692565b610e68565b60405161017e94939291906116e6565b60405180910390f35b733ae8a149d4aca7d1c4fc85de84faa509aed4a41881565b7f000000000000000000000000000000000000000000000000000000000000000081565b6101cb610edd565b5f5f5f8681526020019081526020015f209050806003015f9054906101000a900460ff1615610226576040517f41d5c2cf00000000000000000000000000000000000000000000000000000000815260040160405180910390fd5b5f73ffffffffffffffffffffffffffffffffffffffff16815f015f9054906101000a900473ffffffffffffffffffffffffffffffffffffffff1673ffffffffffffffffffffffffffffffffffffffff1614806102d057505f73ffffffffffffffffffffffffffffffffffffffff16816001015f9054906101000a900473ffffffffffffffffffffffffffffffffffffffff1673ffffffffffffffffffffffffffffffffffffffff16145b15610307576040517fb3ed896d00000000000000000000000000000000000000000000000000000000815260040160405180910390fd5b805f015f9054906101000a900473ffffffffffffffffffffffffffffffffffffffff1673ffffffffffffffffffffffffffffffffffffffff168473ffffffffffffffffffffffffffffffffffffffff16141580156103b45750806001015f9054906101000a900473ffffffffffffffffffffffffffffffffffffffff1673ffffffffffffffffffffffffffffffffffffffff168473ffffffffffffffffffffffffffffffffffffffff1614155b156103eb576040517fabca351700000000000000000000000000000000000000000000000000000000815260040160405180910390fd5b5f85856040516020016103ff92919061178e565b6040516020818303038152906040528051906020012090505f61042182610eff565b90507f000000000000000000000000000000000000000000000000000000000000000073ffffffffffffffffffffffffffffffffffffffff166104b086868080601f0160208091040260200160405190810160405280939291908181526020018383808284375f81840152601f19601f8201169050808301925050505050505083610f3290919063ffffffff16565b73ffffffffffffffffffffffffffffffffffffffff16146104fd576040517f8baa579f00000000000000000000000000000000000000000000000000000000815260040160405180910390fd5b6001836003015f6101000a81548160ff0219169083151502179055505f6002846002015461052b91906117e6565b905061057887827f000000000000000000000000000000000000000000000000000000000000000073ffffffffffffffffffffffffffffffffffffffff16610f5c9092919063ffffffff16565b50505050610584610faf565b50505050565b7f000000000000000000000000000000000000000000000000000000000000000081565b6105b6610edd565b5f5f5f8481526020019081526020015f209050806003015f9054906101000a900460ff1615610611576040517f41d5c2cf00000000000000000000000000000000000000000000000000000000815260040160405180910390fd5b5f73ffffffffffffffffffffffffffffffffffffffff16815f015f9054906101000a900473ffffffffffffffffffffffffffffffffffffffff1673ffffffffffffffffffffffffffffffffffffffff16036106b55733815f015f6101000a81548173ffffffffffffffffffffffffffffffffffffffff021916908373ffffffffffffffffffffffffffffffffffffffff1602179055508181600201819055506107c2565b5f73ffffffffffffffffffffffffffffffffffffffff16816001015f9054906101000a900473ffffffffffffffffffffffffffffffffffffffff1673ffffffffffffffffffffffffffffffffffffffff160361078f5781816002015414610748576040517f9de3d44100000000000000000000000000000000000000000000000000000000815260040160405180910390fd5b33816001015f6101000a81548173ffffffffffffffffffffffffffffffffffffffff021916908373ffffffffffffffffffffffffffffffffffffffff1602179055506107c1565b6040517fb3ed896d00000000000000000000000000000000000000000000000000000000815260040160405180910390fd5b5b61080f3330847f000000000000000000000000000000000000000000000000000000000000000073ffffffffffffffffffffffffffffffffffffffff16610fc9909392919063ffffffff16565b50610818610faf565b5050565b610824610edd565b5f5f5f8381526020019081526020015f2090503373ffffffffffffffffffffffffffffffffffffffff16815f015f9054906101000a900473ffffffffffffffffffffffffffffffffffffffff1673ffffffffffffffffffffffffffffffffffffffff16146108be576040517fc47d06aa00000000000000000000000000000000000000000000000000000000815260040160405180910390fd5b5f73ffffffffffffffffffffffffffffffffffffffff16816001015f9054906101000a900473ffffffffffffffffffffffffffffffffffffffff1673ffffffffffffffffffffffffffffffffffffffff1614610946576040517f795a6a8200000000000000000000000000000000000000000000000000000000815260040160405180910390fd5b806003015f9054906101000a900460ff161561098e576040517f41d5c2cf00000000000000000000000000000000000000000000000000000000815260040160405180910390fd5b6001816003015f6101000a81548160ff021916908315150217905550610a1b815f015f9054906101000a900473ffffffffffffffffffffffffffffffffffffffff1682600201547f000000000000000000000000000000000000000000000000000000000000000073ffffffffffffffffffffffffffffffffffffffff16610f5c9092919063ffffffff16565b50610a24610faf565b50565b610a2f610edd565b5f5f5f8381526020019081526020015f209050806003015f9054906101000a900460ff1615610a8a576040517f41d5c2cf00000000000000000000000000000000000000000000000000000000815260040160405180910390fd5b805f015f9054906101000a900473ffffffffffffffffffffffffffffffffffffffff1673ffffffffffffffffffffffffffffffffffffffff163373ffffffffffffffffffffffffffffffffffffffff1614158015610b375750806001015f9054906101000a900473ffffffffffffffffffffffffffffffffffffffff1673ffffffffffffffffffffffffffffffffffffffff163373ffffffffffffffffffffffffffffffffffffffff1614155b15610b6e576040517fabca351700000000000000000000000000000000000000000000000000000000815260040160405180910390fd5b6001816003015f6101000a81548160ff0219169083151502179055505f73ffffffffffffffffffffffffffffffffffffffff16816001015f9054906101000a900473ffffffffffffffffffffffffffffffffffffffff1673ffffffffffffffffffffffffffffffffffffffff1603610c5657610c51815f015f9054906101000a900473ffffffffffffffffffffffffffffffffffffffff1682600201547f000000000000000000000000000000000000000000000000000000000000000073ffffffffffffffffffffffffffffffffffffffff16610f5c9092919063ffffffff16565b610e5c565b5f606460058360020154610c6a91906117e6565b610c749190611854565b90505f600282610c849190611854565b90505f8183610c939190611884565b90505f838560020154610ca69190611884565b90505f828660020154610cb991906118b7565b90505f865f015f9054906101000a900473ffffffffffffffffffffffffffffffffffffffff1673ffffffffffffffffffffffffffffffffffffffff163373ffffffffffffffffffffffffffffffffffffffff1614610d3957865f015f9054906101000a900473ffffffffffffffffffffffffffffffffffffffff16610d5e565b866001015f9054906101000a900473ffffffffffffffffffffffffffffffffffffffff165b9050610dab33847f000000000000000000000000000000000000000000000000000000000000000073ffffffffffffffffffffffffffffffffffffffff16610f5c9092919063ffffffff16565b610df681837f000000000000000000000000000000000000000000000000000000000000000073ffffffffffffffffffffffffffffffffffffffff16610f5c9092919063ffffffff16565b610e55733ae8a149d4aca7d1c4fc85de84faa509aed4a418867f000000000000000000000000000000000000000000000000000000000000000073ffffffffffffffffffffffffffffffffffffffff16610f5c9092919063ffffffff16565b5050505050505b50610e65610faf565b50565b5f602052805f5260405f205f91509050805f015f9054906101000a900473ffffffffffffffffffffffffffffffffffffffff1690806001015f9054906101000a900473ffffffffffffffffffffffffffffffffffffffff1690806002015490806003015f9054906101000a900460ff16905084565b610ee561101e565b6002610ef7610ef261105f565b611088565b5f0181905550565b5f7f19457468657265756d205369676e6564204d6573736167653a0a3332000000005f5281601c52603c5f209050919050565b5f5f5f5f610f408686611091565b925092509250610f5082826110e6565b82935050505092915050565b610f698383836001611248565b610faa57826040517f5274afe7000000000000000000000000000000000000000000000000000000008152600401610fa1919061145d565b60405180910390fd5b505050565b6001610fc1610fbc61105f565b611088565b5f0181905550565b610fd78484848460016112aa565b61101857836040517f5274afe700000000000000000000000000000000000000000000000000000000815260040161100f919061145d565b60405180910390fd5b50505050565b61102661131b565b1561105d576040517f3ee5aeb500000000000000000000000000000000000000000000000000000000815260040160405180910390fd5b565b5f7f9b779b17422d0df92223018b32b4d1fa46e071723d6817e2486d003becc55f005f1b905090565b5f819050919050565b5f5f5f60418451036110d1575f5f5f602087015192506040870151915060608701515f1a90506110c388828585611337565b9550955095505050506110df565b5f600285515f1b9250925092505b9250925092565b5f60038111156110f9576110f86118ea565b5b82600381111561110c5761110b6118ea565b5b03156112445760016003811115611126576111256118ea565b5b826003811115611139576111386118ea565b5b03611170576040517ff645eedf00000000000000000000000000000000000000000000000000000000815260040160405180910390fd5b60026003811115611184576111836118ea565b5b826003811115611197576111966118ea565b5b036111db57805f1c6040517ffce698f70000000000000000000000000000000000000000000000000000000081526004016111d29190611917565b60405180910390fd5b6003808111156111ee576111ed6118ea565b5b826003811115611201576112006118ea565b5b0361124357806040517fd78bce0c00000000000000000000000000000000000000000000000000000000815260040161123a919061193f565b60405180910390fd5b5b5050565b5f5f63a9059cbb60e01b9050604051815f525f1960601c86166004528460245260205f60445f5f8b5af1925060015f5114831661129c578383151615611290573d5f823e3d81fd5b5f873b113d1516831692505b806040525050949350505050565b5f5f6323b872dd60e01b9050604051815f525f1960601c87166004525f1960601c86166024528460445260205f60645f5f8c5af1925060015f511483166113085783831516156112fc573d5f823e3d81fd5b5f883b113d1516831692505b806040525f606052505095945050505050565b5f600261132e61132961105f565b611088565b5f015414905090565b5f5f5f7f7fffffffffffffffffffffffffffffff5d576e7357a4501ddfe92f46681b20a0845f1c1115611373575f600385925092509250611414565b5f6001888888886040515f81526020016040526040516113969493929190611973565b6020604051602081039080840390855afa1580156113b6573d5f5f3e3d5ffd5b5050506020604051035190505f73ffffffffffffffffffffffffffffffffffffffff168173ffffffffffffffffffffffffffffffffffffffff1603611407575f60015f5f1b93509350935050611414565b805f5f5f1b935093509350505b9450945094915050565b5f73ffffffffffffffffffffffffffffffffffffffff82169050919050565b5f6114478261141e565b9050919050565b6114578161143d565b82525050565b5f6020820190506114705f83018461144e565b92915050565b5f819050919050565b5f61149961149461148f8461141e565b611476565b61141e565b9050919050565b5f6114aa8261147f565b9050919050565b5f6114bb826114a0565b9050919050565b6114cb816114b1565b82525050565b5f6020820190506114e45f8301846114c2565b92915050565b5f5ffd5b5f5ffd5b5f819050919050565b611504816114f2565b811461150e575f5ffd5b50565b5f8135905061151f816114fb565b92915050565b61152e8161143d565b8114611538575f5ffd5b50565b5f8135905061154981611525565b92915050565b5f5ffd5b5f5ffd5b5f5ffd5b5f5f83601f8401126115705761156f61154f565b5b8235905067ffffffffffffffff81111561158d5761158c611553565b5b6020830191508360018202830111156115a9576115a8611557565b5b9250929050565b5f5f5f5f606085870312156115c8576115c76114ea565b5b5f6115d587828801611511565b94505060206115e68782880161153b565b935050604085013567ffffffffffffffff811115611607576116066114ee565b5b6116138782880161155b565b925092505092959194509250565b5f819050919050565b61163381611621565b811461163d575f5ffd5b50565b5f8135905061164e8161162a565b92915050565b5f5f6040838503121561166a576116696114ea565b5b5f61167785828601611511565b925050602061168885828601611640565b9150509250929050565b5f602082840312156116a7576116a66114ea565b5b5f6116b484828501611511565b91505092915050565b6116c681611621565b82525050565b5f8115159050919050565b6116e0816116cc565b82525050565b5f6080820190506116f95f83018761144e565b611706602083018661144e565b61171360408301856116bd565b61172060608301846116d7565b95945050505050565b5f819050919050565b61174361173e826114f2565b611729565b82525050565b5f8160601b9050919050565b5f61175f82611749565b9050919050565b5f61177082611755565b9050919050565b6117886117838261143d565b611766565b82525050565b5f6117998285611732565b6020820191506117a98284611777565b6014820191508190509392505050565b7f4e487b71000000000000000000000000000000000000000000000000000000005f52601160045260245ffd5b5f6117f082611621565b91506117fb83611621565b925082820261180981611621565b915082820484148315176118205761181f6117b9565b5b5092915050565b7f4e487b71000000000000000000000000000000000000000000000000000000005f52601260045260245ffd5b5f61185e82611621565b915061186983611621565b92508261187957611878611827565b5b828204905092915050565b5f61188e82611621565b915061189983611621565b92508282039050818111156118b1576118b06117b9565b5b92915050565b5f6118c182611621565b91506118cc83611621565b92508282019050808211156118e4576118e36117b9565b5b92915050565b7f4e487b71000000000000000000000000000000000000000000000000000000005f52602160045260245ffd5b5f60208201905061192a5f8301846116bd565b92915050565b611939816114f2565b82525050565b5f6020820190506119525f830184611930565b92915050565b5f60ff82169050919050565b61196d81611958565b82525050565b5f6080820190506119865f830187611930565b6119936020830186611964565b6119a06040830185611930565b6119ad6060830184611930565b9594505050505056fea26469706673582212204c041999d059deebc0b67cdc8864ef5ad177ac77cb789cee5416baae0af657a864736f6c63430008230033","linkReferences":{}},"methodIdentifiers":{"TREASURY_ADDRESS()":"07604b1a","claimPrize(bytes32,address,bytes)":"304fd166","games(bytes32)":"f579f882","leaveGame(bytes32)":"e6d39e85","lockBet(bytes32,uint256)":"7448b9b4","reclaimBet(bytes32)":"bd43845b","serverSigner()":"31af1908","usdcToken()":"11eac855"},"id":32}